:04000000020049327F
:01000B0032C2
:0100130032BA
:01001B0032B2
:0100230032AA
:01002B0032A2
:01003300329A
:01003B003292
:0300430002006850
:0300650002004650
:030046000200A70E
:10006800C020C0E0C0F0C082C083C007C006C00581
:10007800C004C003C002C001C000C0D075D00012C7
:100088001466D0D0D000D001D002D003D004D0055F
:10009800D006D007D083D082D0F0D0E0D0203275FF
:1000A800A15575A1AA53B9F843B90575A1009000E7
:1000B800051210D7121073900104E060FAE5D370AE
:1000C800F6120F43900104E4F074F355D4FF8FD473
:0C00D80075D34074FC55D2FF8FD280DB42
:04005C00783C760076
:1000E400AF827E007D00AB27AC288F021FEA60231D
:1000F400ED700D8B828C83E0FEA3AB82AC837D0814
:10010400EE5401FA24FF9296D297C297EEC313FEDF
:100114001D80D722AF82743F5FFE70027E40EF30B5
:10012400E746AD29AF2AEE60717C007B088E02EBB6
:10013400601BEA6018A296E433F9D297C297ECC325
:1001440013F8E9035480F948FC1B1A80E28A068BF1
:10015400F005F0EC8002C313D5F0FBFB8D828F8396
:10016400F0A3AD82AF8380BEAD27AF28EE602B8DA8
:10017400828F83E0FCA3AD82AF837B088E02EB60A9
:10018400EBEA60E8EC5401F924FF9296D297C29707
:10019400ECC313FC1B1A8A0680E422AF82D296D2E7
:1001A40097C297EF540124FF9296D297C297EFC358
:1001B40013FE540124FF9296D297C297EE2FFDEEC0
:1001C400C313FE540124FF9296D297C297EE2DFDDD
:1001D400EEC313FE5401FC24FF9296D297C297EE0D
:1001E4002D540124FF9296D297C297C296D297C2F9
:1001F40097D296D297C297D297C297A296E433FE2B
:10020400D297C297A296E433FDD297C297ED2DFD03
:10021400EE4205A296E433FED297C297EE2E25E075
:10022400FEED4206BE010280030202E2EF30E15716
:100234007F007D008F297B08A296E433FAD297C20F
:1002440097EA2DFDEFC313FFEA60098F027C004398
:1002540002808A07DBE2E5274528600DE52925278A
:10026400F582E43528F583EFF0052974FC2529503F
:10027400C5A296E433FFD297C297EF6D30E0027EB9
:1002840008D297C2978040D297C2977F007D00ED35
:100294002527F582E43528F583E0FC8CE030D00195
:1002A4000F7B08EC5401FA24FF9296D297C297EC84
:1002B400C313FCDBEE0DBD040040D4EF5401FF2456
:1002C400FF9296D297C297C296782EE6FF600AEF05
:1002D4006007D297C2971F80F6D2968E8222BE0202
:1002E400028003BE0409D297C297D2968E82227FDF
:1002F40022D297C297DFFAD2968E8222AF827E00F4
:10030400BF0402800FBFF002802ABFFE028048BFF4
:10031400FF50802D7E06AC08AD097F0075278275DD
:1003240028157529FF8C828D838FF0C0061215075E
:10033400D006802E8508828509837401F07E0180B1
:1003440021AD08AF098D828F837440F08D828F8335
:10035400A3E4F07E02800B8508828509837402F091
:100364007E018E8222AE82AF83AC27AD288C828D33
:1003740083E4F08E828F83E0FF600CBF010280076C
:100384008C828D8374FFF075820122E0FF70047EFD
:100394000180028F06BE010A782F7601C294C297AB
:1003A40080027E00852782852883EEF075820122F3
:1003B400E4F0782F7600D295D296D297D2947582B3
:1003C4000122AE82AF83E0FD8E828F83A3E0FC8E98
:1003D400828F83A3A3E0FB7A008E828F83A3A3A3DF
:1003E400E0F9E44203E9420274042EF8E43FF98898
:1003F400828983E0700E74052EFEE43FFF8E828FA7
:1004040083E06003430280EC30E0128D067F00EE4F
:1004140030E006D297A2978004C297A297EC30E10D
:10042400128D067F00EE30E106D296A2968004C2B9
:1004340096A296EC30E709ED235401FF24FF929530
:10044400EB4A606274025CFE7F0074805CF87900A1
:10045400ED235401F529EDC313F52A8D2D74015CA8
:10046400F52B8F2C8A04E52B452C6011C000C001AC
:10047400AA2DA297E4336AD001D000701CEE4F601D
:100484000AAA2AA296E433FD6A700EE8496017AA04
:1004940029A295E433FD6A600D8B028C051BBBFF1A
:1004A400011CEA4D70C0A297E433FFA296E4332501
:1004B400E04207A295E433035480420785278285EE
:1004C4002883EFF075820122AE82AF83E0FD0EBE79
:1004D40000010FEDFC70027CFF8E278F288C8212A6
:1004E40000E4850A82850B83E4F075820122AE82E2
:1004F400AF83AC0CAD0D8C828D83E4F0042CF50C31
:10050400E43DF50D7D017C018E828F83E0FB0EBE00
:1005140000010F8B021BEA700302059E8E828F83FB
:10052400E0FAA3AE82AF83743F5AF970027940892E
:10053400007900740728F8E439C423C8C423541F7D
:1005440068C8541FC868C8D2968E278F28850C297E
:10055400850D2A8A82C007C006C005C004C003C036
:1005640002C000120118D000D002D003D004D0057C
:10057400D006D007EB7002D296EA30E7100DE825DA
:100584000CF50CE4350DF50DE82CFC8086E82EFE08
:10059400E43FFFE8042DFD0205178C8222AE82AFF2
:1005A40083782EE0F68E828F83A3E0FD7C008E821A
:1005B4008F83A3A3E0FAE44205EA42047830A60557
:1005C40008A6048E828F83A3A3A3E0FD7C008E8201
:1005D4008F83A3A3A3A3E0FEE44205EE4204783292
:1005E400A60508A604852782852883E4F075820180
:1005F40022AE82AF83783F760078407600850E1075
:10060400850F1174022510F50EE43511F50F783CB1
:1006140076007512007513000EBE00010F8E828FD6
:1006240083783DE0F60EBE00010F783DE6700302CC
:100634000B5B8E828F83E0F514A3AE82AF83783E8A
:10064400E514F620E1030209EEE5127003020748FF
:10065400783086020886057841A60208A605AC14FF
:100664005304117D00BC013EBD003B752700752875
:1006740001783E8682C007C00612019FAD82D00673
:10068400D0077840A605BD0258784186040886053F
:100694007841EC24FFF6ED34FF08F6EC4D60427827
:1006A4003CE660C7803B75270075280175820EC043
:1006B40007C00612019FAD82D006D0077840A60578
:1006C400BD021B784186040886057841EC24FFF6B8
:1006D400ED34FF08F6EC4D6005783CE660C8751211
:1006E400007840B601028003020B5BAC0EAD0F90A4
:1006F4000100E08C828D83F074012CF50EE43DF54D
:100704000FAC0EAD0F900101E08C828D83F074016B
:100714002CF50EE43DF50FAC0EAD0F900102E08C0C
:10072400828D83F074012CF50EE43DF50FAC0EAD13
:100734000F900103E0FA8C828D83F074012CF50E86
:10074400E43DF50F783EE6FD20E4030208EF8E82D7
:100754008F83E0FC7838A6048E828F83A3E0FC7834
:1007640039A6048E828F83A3A3E0FC783AA6048E74
:10077400828F83A3A3A3E0FC783BA60474042EFE1B
:10078400E43FFF783EE630E04E7830860208860487
:100794007841A60208A604E4F527F528783E868267
:1007A400C007C00612019FAC82D006D0077840A6CD
:1007B40004BC021B784186020886037841EA24FFC0
:1007C400F6EB34FF08F6EA4B6005783CE660C8BCFB
:1007D40001028003020B5B783086030886047841AB
:1007E400A60308A604752700752801783E8682C0F2
:1007F40007C00612019FAC82D006D0077840A60439
:10080400BC021B784186030886047841EB24FFF67A
:10081400EC34FF08F6EB4C6005783CE660C77840A2
:10082400B601028003020894900100E0FC7834E6EB
:10083400520478388603ECB50338900101E0FC7863
:1008440035E6520478398603ECB50326900102E0BC
:10085400FC7836E65204783A8603ECB5031490012A
:1008640003E0FC7837E65204783B8603ECB50302D8
:10087400801E783286030886047832EB24FFF6EC77
:1008840034FF08F6EB4C6008783CE670030207DBA3
:10089400900100E0FC7834E6520478388603ECB525
:1008A4000338900101E0FC7835E652047839860378
:1008B400ECB50326900102E0FC7836E65204783A5F
:1008C4008603ECB50314900103E0FC7837E6520488
:1008D400783B8603ECB5030280067840E64410F6C4
:1008E4007840B601030209E8020B5B7830860308FE
:1008F40086047841A60308A604ED30E04DE51260B5
:10090400030209E8E4F527F528783E8682C007C08B
:100914000612019FAD82D006D0077840A605BD021D
:100924001B784186030886047841EB24FFF6EC34F7
:10093400FF08F6EB4C6005783CE660C8BD01028018
:1009440003020B5B7512010209E875270075280183
:10095400783E8682C007C00612019FAD82D006D0C1
:10096400077840A605BD021B7841860308860478F3
:1009740041EB24FFF6EC34FF08F6EB4C6005783CC1
:10098400E660C7BD01028003020B5BAC0EAD0F90A5
:100994000100E08C828D83F074012CF50EE43DF5AA
:1009A4000FAC0EAD0F900101E08C828D83F07401C9
:1009B4002CF50EE43DF50FAC0EAD0F900102E08C6A
:1009C400828D83F074012CF50EE43DF50FAC0EAD71
:1009D4000F900103E0FB8C828D83F074012CF50EE3
:1009E400E43DF50F751300020B4DE5127003020A86
:1009F4009F783086040886057841A60408A6057504
:100A0400270075280175820EC007C00612019FAD2C
:100A140082D006D0077840A605BD021B7841860324
:100A24000886047841EB24FFF6EC34FF08F6EB4C1F
:100A34006005783CE660C8BD01028003020B5BAC34
:100A44000EAD0F900100E08C828D83F074012CF5C3
:100A54000EE43DF50FAC0EAD0F900101E08C828DDC
:100A640083F074012CF50EE43DF50FAC0EAD0F9040
:100A74000102E08C828D83F074012CF50EE43DF5C7
:100A84000FAC0EAD0F900103E0FB8C828D83F074EC
:100A9400012CF50EE43DF50F7512008E828F83E074
:100AA400900100F08E828F83A3E0900101F08E828A
:100AB4008F83A3A3E0900102F08E828F83A3A3A36C
:100AC400E0900103F074042EFEE43FFF783EE6302C
:100AD400E52A900100E0FD7834A605900101E0FDCF
:100AE4007835A605900102E0FD7836A6059001034D
:100AF400E0FD7837A60578407601804D783086048D
:100B04000886057841A60408A605752700752801FE
:100B1400783E8682C007C00612019FAD82D006D0FF
:100B2400077840A605BD021B784186030886047831
:100B340041EB24FFF6EC34FF08F6EB4C6005783CFF
:100B4400E660C7BD0111751301783F06783CE67075
:100B540006783D1602062E783DE6602C8E828F8341
:100B6400E0FDA3AE82AF83783EA605ED30E10DED46
:100B740030E41074042EFEE43FFF800774042EFE5C
:100B8400E43FFF783D1680CF7840B601028003022F
:100B94000C7FE5127003020C3E7830860608860747
:100BA4007841A60608A60775270075280175820EE8
:100BB40012019FAF827840A607BF021B78418605C9
:100BC4000886067841ED24FFF6EE34FF08F6ED4E74
:100BD4006005783CE660D0BF01028003020C7FAE62
:100BE4000EAF0F900100E08E828F83F074012EF51A
:100BF4000EE43FF50FAE0EAF0F900101E08E828F31
:100C040083F074012EF50EE43FF50FAE0EAF0F9096
:100C14000102E08E828F83F074012EF50EE43FF51D
:100C24000FAE0EAF0F900103E0FD8E828F83F07440
:100C3400012EF50EE43FF50F8041E513603D783059
:100C440086060886077841A60608A607E4F527F570
:100C54002875820E12019FAF827840A607BF021B3F
:100C6400784186060886077841EE24FFF6EF34FFC4
:100C740008F6EE4F6005783CE660D1851082851158
:100C840083783FE6F0851082851183A37840E6F0EF
:100C9400E50EC39510FEE50F95118E8222AE82AF4C
:100CA40083783F760078407600851517851618748A
:100CB400032517F515E43518F516783C76000EBEB5
:100CC40000010F8E828F83E0FB7A008E828F83A3D4
:100CD400E0FCE4FD4203EC4202783DA60374022EDC
:100CE400FEE43FFF783DE67003020EE18E828F83BF
:100CF400E0FD0EBE00010F783EA605ED20E10302E3
:100D04000E14ED30E046783086040886057841A656
:100D14000408A605E4F527F528783E868212019F8B
:100D2400AD827840A605BD021B784186030886047F
:100D34007841EB24FFF6EC34FF08F6EB4C600578C1
:100D44003CE660D0BD01028003020EE1783D8605D9
:100D5400783DED14F6ED7003020EE1783DE6700A7D
:100D6400783EE630E004783E760E783086040886D5
:100D7400057841A60408A605752700752801783E64
:100D8400868212019FAD827840A605BD021B784180
:100D940086030886047841EB24FFF6EC34FF08F65A
:100DA400EB4C6005783CE660CFBD01028003020E87
:100DB400E1AC15AD16900100E08C828D83F07401D6
:100DC4002CF515E43DF516AC15AD16900101E08C3B
:100DD400828D83F074012CF515E43DF516AC15AD48
:100DE40016900102E08C828D83F074012CF515E4D9
:100DF4003DF516AC15AD16900103E0FB8C828D8396
:100E0400F074012CF515E43DF516783F06020D50FB
:100E1400783D8605783DED14F6ED7003020EA48E40
:100E2400828F83E0900100F08E828F83A3E0900193
:100E340001F08E828F83A3A3E0900102F08E828F53
:100E440083A3A3A3E0900103F074042EFEE43FFF08
:100E5400783086040886057841A60408A605752717
:100E640000752801783E8682C007C00612019FAD36
:100E740082D006D0077840A605BD021B78418603C0
:100E84000886047841EB24FFF6EC34FF08F6EB4CBB
:100E94006005783CE660C7BD0143783F06020E1446
:100EA400783086060886077841A60608A607E4F582
:100EB40027F52875820E12019FAF827840A607BFDE
:100EC400021B784186060886077841EE24FFF6EF78
:100ED40034FF08F6EE4F6005783CE660D185178252
:100EE400851883783FE6F0851782851883A3E4F09C
:100EF400851782851883A3A37840E6F0E515C3958A
:100F040017FEE51695188E8222AE82AF83782FB62F
:100F14000111851915851A168E828F83120CA1AFC3
:100F2400828019AD19AE1A8D828E83E4F08D828E83
:100F340083A3F08D828E83A3A3F07F038F822290FC
:100F44000080E0900040F0900080E0FF606BBF0103
:100F540003020FDFBF0203020FF0BF0303021001FD
:100F6400BF040302104DBF0502802CBF0602803867
:100F7400BF080302105DBF100302100BBF11030270
:100F8400101BBF1203021024BF1303021034BF1D31
:100F94000302103D021066750E41750F009000812A
:100FA4001205F5AF8202106E751941751A00900092
:100FB40081120F0DAF8202106E900081E0FE740169
:100FC4002441F508E43400F5098E82120300AE8250
:100FD400900041EEF0EE04FF02106E752741752873
:100FE40000900081120369AF8202106E752741756B
:100FF400280090008112038FAF8202106E9000418E
:101004001203B4AF82806375274175280090008174
:101014001203C6AF828053900041E4F07F01804AFE
:10102400750A41750B009000811204CCAF82803A9E
:10103400900041E4F07F018031750C41750D009002
:1010440000811204F2AF8280217527417528009037
:1010540000811205A1AF828011900041E4F07F016C
:0F106400800890004074FFF07F01EF04F58222B6
:06158200312E322E310073
:05006000900104E4F032
:101073001214E475D3002275EE4075EF0075E48019
:1010830075E50075D21275D41075EA4075EB082228
:1010930075D21275D4102275D30074FC55D2FF4358
:1010A30007028FD22230DE15900104E5DBF0E06009
:1010B3000C74F355D2FF7E004307088FD222AE8211
:1010C300AF83EE4F600D05A105A105A11EBEFF0173
:1010D3001F80EF22AE82AF83EE4F60159003E8C00E
:1010E30007C0061210C1D006D0071EBEFF011F8025
:1010F300E722C007AF82DFFED00722C007AF820519
:10110300A290000015A2852582852683E493A3A5DA
:10111300DFFAD00722AFDBBF080280030213DC90A3
:101123000007E0FE7F00900006E0FD7C004FF52104
:10113300EC4EF5227F00900001E0F523900000E0E3
:10114300FE546060057FFF0213DEE52324F45003A1
:101153000213D8E523240B83F582E523241083F5BA
:1011630083E473BC98D813D8697ED8768FDEDE13F8
:101173001213131312111312121313900003E0FE30
:10118300BE01028012BE02028017BE0302801CBE93
:10119300220280690212187525887526157F128030
:1011A3007675259A7526157F29806C900002E0FEDE
:1011B30024FB4038EE2E9011BD738008800E8014FE
:1011C300801A80207525DD75261580267525E17525
:1011D3002615801E7525F9752615801675251D752E
:1011E3002616800E752529752616800675251D750C
:1011F3002616852582852683E493FF801A900002B4
:10120300E0700E7525C37526159015DCE493FF80F9
:10121300067FFF80027FFFBFFF030213DE8F057E81
:1012230000C3ED9521EE952250048D218E22C3E556
:10123300219440E522940040067D407E008004AD69
:1012430021AE228D078F821210FE8F057E00E521CD
:10125300C39DF521E5229EF522EF2525F525E435ED
:1012630026F5260213DE900002E0FE8E2175220091
:101273000213DE900000E524F0C3E5219401E5228A
:10128300940050030213DE7F010213DE900002E09C
:10129300F5240213DE900000E0541F702F9000032A
:1012A300E0FD7E00900002E0FC7B004206EB42057D
:1012B300BE0114BD00119015A1E493FE30E50302B5
:1012C30013DE7FFF0213DE7FFF0213DE900000E0D8
:1012D300FE53061F7D00BE0232BD002F900004E0C6
:1012E300FEBE02028005BE811D800C747355D4FEC0
:1012F3007D008ED40213DE74BC55D2FE7D004306FE
:10130300028ED20213DE7FFF0213DE7FFF0213DEA3
:10131300900000E0541F702F900003E0FD7E0090CA
:101323000002E0FC7B004206EB4205BE0114BD0057
:10133300119015A1E493FE30E5030213DE7FFF0253
:1013430013DE7FFF0213DE900000E0FE53061F7DD5
:1013530000BE0261BD005E900003E0FD7E009000D0
:1013630002E0FC7B004206EB4205EE4D7043900029
:1013730005E0FD7E00900004E0FC7B004206EB42AA
:1013830005BE0205BD00028008BE8121BD001E808E
:101393000E747F55D4FE7D0043060C8ED4803C74BE
:1013A300BF55D2FE7D004306038ED2802E7FFF8081
:1013B3002A7FFF80267FFF8022900000E4F09000C8
:1013C30001F0C3E5219402E522940040047F0280EA
:1013D3000AAF2180067FFF80027FFFBFFF077523CF
:1013E300FF75DCCF22EF24BF40068FDD75DCC02202
:1013F30075DD0075DCC0227405B5230280427406D6
:10140300B52352C3E5219440E522940040067E4073
:101413007F008004AE21AF228E821210FE8E057FE4
:1014230000E521C39DF521E5229FF522EE2525F553
:1014330025E43526F5268EDDAEDC6306408EDC2200
:10144300AEE35306807F00E5214206E52242078E84
:10145300E375DC022275DD0075DC022275DD0043D5
:10146300DC022230D95CE5D9540FFFADD9530530E6
:101473007E00BD0005BE00028018BD1005BE00023F
:10148300803EBD2005BE0002801CBD3033BE00304F
:101493008028BF00028005BF0226800512145F80EA
:1014A3001F1210A8801ABF00028005BF0112800519
:1014B3001213FA800B12109A8006BF000312111840
:1014C300C2D930D80F75DC0212109375E300C2DA6B
:1014D300C2D9C2D810DA0122E5DA20E20375D8FFB7
:1014E3002275E22975D181E4F5ECF5ED75DC021284
:1014F300107A43E107AED843061F8ED8D2EAD2AFA3
:0415030075DD002270
:101588001201000200000040C016DF050001010240
:1015980003010902290001010080E1090400000299
:1015A8000300000409211001000122190007058128
:1015B80003400001070502034000010600FF09017E
:1015C800A101150026FF007508954009028102094E
:1015D800039102C019040309041803770061006726
:1015E8000069006D0069006E00610074006F007290
:1015F8000024037000690063006F0044004100503C
:1016080000200043004D005300490053002D0044C2
:1016180000410050000C03430048003500350078B5
:10162800001203480049004400200044006100748F
:031638000061004E
:1015070085822A85832B85F02CAA27AB28AC29A8AE
:101517002AA92BAF2C8A828B838CF0121562FEA32B
:10152700AA82AB83888289838FF0EE121547A3A81E
:1015370082A983EE70DF852A82852B83852CF02292
:06005600E478FFF6D8FD7E
:1015470020F71130F6138883A88220F509F6A883BF
:0B1557007583002280FEF280F5F02278
:0D00490075814212157EE5826003020046BB
:1015620020F71430F6148883A88220F507E6A883B2
:1015720075830022E280F7E49322E0227582002242
:00000001FF
