:04000000020049327F
:01000B0032C2
:0100130032BA
:01001B0032B2
:0100230032AA
:01002B0032A2
:01003300329A
:01003B003292
:0300430002006E4A
:08005C00750800750902C200DD
:03006B000200464A
:030046000200FBBA
:10006E00C021C0E0C0F0C082C083C007C006C0057A
:10007E00C004C003C002C001C000C0D075D00012C1
:10008E001384D0D0D000D001D002D003D004D0053C
:10009E00D006D007D083D082D0F0D0E0D02132125B
:1000AE00141685E42485E5252275D50074FC55D4F7
:1000BE00FF4307028FD42230DE3285DB08E508606D
:1000CE002B74F355D2FF7E004307088FD285EE22A4
:1000DE0085EF23B20030000E7E0E7F1074402EF599
:1000EE00EEE43FF5EF2275EE0E75EF102275A15579
:1000FE0075A1AA74F855B9FF4307058FB975A1000C
:10010E0053C67FC2B6900032120177D2B6AEC64346
:10011E0006808EC61200ADD294E50860FCE5D5705F
:10012E00F8AE22AF231509E509600C75080074F3CB
:10013E0055D2FD7C008DD28E828F83120DE175D546
:10014E004074FC55D4FF8FD4050974F355D2FF8F3C
:03015E00D280C686
:10170600120100020000000809125DC50001010275
:101716000301290902290001010080C8090400000B
:10172600020300000009211001000122180007052C
:101736008203400001070501034000010600FF097E
:1017460001A101150025FF750895400901810209CF
:10175600019102C0180403090424037000690063A0
:10176600006F00440041005000200043004D00532C
:1017760000490053002D0044004100500018037733
:10178600006100670069006D0069006E0061007409
:10179600006F0072000C03430048003500350078E6
:0117A6000042
:10016100AE82AF83EE4F600D05A105A105A11EBEB4
:10017100FF011F80EF22AE82AF83EE4F6015900327
:10018100E8C007C006120161D006D0071EBEFF01FC
:040191001F80E722C2
:040064007847760063
:10019500AF827E00BF0402800FBFF002802ABFFE3F
:1001A500028048BFFF50802D7E06AC26AD277F001C
:1001B5007511A77512177513FF8C828D838FF0C08B
:1001C5000612168BD006802E85268285278374011C
:1001D500F07E018021AD26AF278D828F837440F09C
:1001E5008D828F83A3E4F07E02800B85268285278E
:1001F500837402F07E018E8222AE82AF83AC11AD94
:10020500128C828D83E4F08E828F83E0FF600CBFB9
:10021500010280078C828D8374FFF075820122E0D4
:10022500FF70047E0180028F06BE011278397601C7
:10023500C29753927F5392BFD296D29580027E0089
:10024500851182851283EEF0C29475820122E4F055
:1002550078397600C29753927F5392BFD296D29542
:10026500D29475820122AE82AF83E0FD8E828F83A8
:10027500A3E0FC8E828F83A3A3E0FB7A008E828F9E
:1002850083A3A3A3E0F9E44203E9420274042EF830
:10029500E43FF988828983E0700E74052EFEE43F01
:1002A500FF8E828F83E06003430280EC30E00AED2D
:1002B50030E004D2978002C297EC30E10AED30E1DC
:1002C50004D2968002C296EC30E709ED235401FF73
:1002D50024FF9295EB4A606274025CFE7F00748095
:1002E5005CF87900ED235401F513EDC313F5148D76
:1002F5001774015CF5158F168A04E515451660110E
:10030500C000C001AA17A297E4336AD001D00070DB
:100315001CEE4F600AAA14A296E433FD6A700EE83B
:10032500496017AA13A295E433FD6A600D8B028C10
:10033500051BBBFF011CEA4D70C0A297E433FFA269
:1003450096E43325E04207A295E43303548042073F
:10035500851182851283EFF075820122AE82AF830B
:10036500E0FD0EBE00010FEDFC70027CFF8E118FCB
:10037500128C82121460852882852983E4F07582A7
:100385000122AE82AF83AC2AAD2B8C828D83E4F043
:10039500042CF52AE43DF52B7D017C018E828F83AB
:1003A500E0FB0EBE00010F8B021BEA700302043C4A
:1003B5008E828F83E0FAA3AE82AF83743F5AF970C1
:1003C50002794089007900740728F8E439C423C804
:1003D500C423541F68C8541FC868C8EA30E704D24C
:1003E500968002D2968E118F12852A13852B148A38
:1003F50082C007C006C005C004C003C002C0001209
:100405001494D000D002D003D004D005D006D00774
:10041500EB7002D296EA30E7110DE8252AF52AE4B9
:10042500352BF52BE82CFC0203ACE82EFEE43FFF50
:10043500E8042DFD0203AC8C8222AE82AF83783AAC
:10044500E0F68E828F83A3E0FD7C008E828F83A3EE
:10045500A3E0FAE44205EA4204783BA60508A604AF
:100465008E828F83A3A3A3E0FD7C008E828F83A35E
:10047500A3A3A3E0FEE44205EE4204783DA60508E9
:10048500A604851182851283E4F075820122AE826D
:10049500AF83784A7600784B7600852C2E852D2FF4
:1004A5007402252EF52CE4352FF52D784776007549
:1004B50030007531000EBE00010F8E828F837848A3
:1004C500E0F60EBE00010F7848E670030209F98ECA
:1004D500828F83E0F532A3AE82AF837849E532F6A9
:1004E50020E10302088CE53070030205E6783B86BF
:1004F50002088605784CA60208A605AC32530411FD
:100505007D00BC013EBD003B751100751210784998
:100515008682C007C00612151BAD82D006D00778AB
:100525004BA605BD0258784C8604088605784CEC28
:1005350024FFF6ED34FF08F6EC4D60427847E6609F
:10054500C7803B75110075121075820EC007C00675
:1005550012151BAD82D006D007784BA605BD021B30
:10056500784C8604088605784CEC24FFF6ED34FFBC
:1005750008F6EC4D60057847E660C8753000784BA5
:10058500B6010280030209F9AC2CAD2D901000E0F4
:100595008C828D83F074012CF52CE43DF52DAC2C6B
:1005A500AD2D901001E08C828D83F074012CF52C1B
:1005B500E43DF52DAC2CAD2D901002E08C828D83A1
:1005C500F074012CF52CE43DF52DAC2CAD2D9010DF
:1005D50003E0FA8C828D83F074012CF52CE43DF553
:1005E5002D7849E6FD20E40302078D8E828F83E096
:1005F500FC7843A6048E828F83A3E0FC7844A6048E
:100605008E828F83A3A3E0FC7845A6048E828F8318
:10061500A3A3A3E0FC7846A60474042EFEE43FFFE2
:100625007849E630E04E783B8602088604784CA689
:100635000208A604E4F511F51278498682C007C0C0
:100645000612151BAC82D006D007784BA604BC0257
:100655001B784C8602088603784CEA24FFF6EB34B7
:10066500FF08F6EA4B60057847E660C8BC010280E2
:10067500030209F9783B8603088604784CA603082B
:10068500A60475110075121078498682C007C00648
:1006950012151BAC82D006D007784BA604BC021BF2
:1006A500784C8603088604784CEB24FFF6EC34FF7F
:1006B50008F6EB4C60057847E660C7784BB6010253
:1006C5008003020732901000E0FC783FE652047880
:1006D500438603ECB50338901001E0FC7840E65200
:1006E5000478448603ECB50326901002E0FC7841BB
:1006F500E6520478458603ECB50314901003E0FC3C
:100705007842E6520478468603ECB50302801E78EB
:100715003D8603088604783DEB24FFF6EC34FF089C
:10072500F6EB4C60087847E67003020679901000F6
:10073500E0FC783FE6520478438603ECB503389035
:100745001001E0FC7840E6520478448603ECB503DA
:1007550026901002E0FC7841E6520478458603ECC9
:10076500B50314901003E0FC7842E65204784686FF
:1007750003ECB503028006784BE64410F6784BB6D9
:1007850001030208860209F9783B86030886047886
:100795004CA60308A604ED30E04DE53060030208E1
:1007A50086E4F511F51278498682C007C006121550
:1007B5001BAD82D006D007784BA605BD021B784C31
:1007C5008603088604784CEB24FFF6EC34FF08F624
:1007D500EB4C60057847E660C8BD0102800302095D
:1007E500F975300102088675110075121078498671
:1007F50082C007C00612151BAD82D006D007784B04
:10080500A605BD021B784C8603088604784CEB24AC
:10081500FFF6EC34FF08F6EB4C60057847E660C759
:10082500BD010280030209F9AC2CAD2D901000E04A
:100835008C828D83F074012CF52CE43DF52DAC2CC8
:10084500AD2D901001E08C828D83F074012CF52C78
:10085500E43DF52DAC2CAD2D901002E08C828D83FE
:10086500F074012CF52CE43DF52DAC2CAD2D90103C
:1008750003E0FB8C828D83F074012CF52CE43DF5AF
:100885002D7531000209EBE530700302093D783B17
:100895008604088605784CA60408A605751100751A
:1008A500121075820EC007C00612151BAD82D00648
:1008B500D007784BA605BD021B784C860308860435
:1008C500784CEB24FFF6EC34FF08F6EB4C6005782A
:1008D50047E660C8BD010280030209F9AC2CAD2DC5
:1008E500901000E08C828D83F074012CF52CE43D92
:1008F500F52DAC2CAD2D901001E08C828D83F0741C
:10090500012CF52CE43DF52DAC2CAD2D901002E01D
:100915008C828D83F074012CF52CE43DF52DAC2CE7
:10092500AD2D901003E0FB8C828D83F074012CF5C6
:100935002CE43DF52D7530008E828F83E0901000FC
:10094500F08E828F83A3E0901001F08E828F83A3B7
:10095500A3E0901002F08E828F83A3A3A3E09010F2
:1009650003F074042EFEE43FFF7849E630E52A9053
:100975001000E0FD783FA605901001E0FD7840A647
:1009850005901002E0FD7841A605901003E0FD7882
:1009950042A605784B7601804D783B86040886058E
:1009A500784CA60408A605751100751210784986BD
:1009B50082C007C00612151BAD82D006D007784B42
:1009C500A605BD021B784C8603088604784CEB24EB
:1009D500FFF6EC34FF08F6EB4C60057847E660C798
:1009E500BD0111753101784A067847E670067848E9
:1009F500160204CC7848E6602C8E828F83E0FDA336
:100A0500AE82AF837849A605ED30E10DED30E410F7
:100A150074042EFEE43FFF800774042EFEE43FFFBE
:100A250078481680CF784BB601028003020B1DE58E
:100A3500307003020ADC783B8606088607784CA6E8
:100A45000608A60775110075121075820E12151B82
:100A5500AF82784BA607BF021B784C860508860631
:100A6500784CED24FFF6EE34FF08F6ED4E60057880
:100A750047E660D0BF01028003020B1DAE2CAF2DEF
:100A8500901000E08E828F83F074012EF52CE43FE8
:100A9500F52DAE2CAF2D901001E08E828F83F07472
:100AA500012EF52CE43FF52DAE2CAF2D901002E074
:100AB5008E828F83F074012EF52CE43FF52DAE2C3C
:100AC500AF2D901003E0FD8E828F83F074012EF51B
:100AD5002CE43FF52D8041E531603D783B860608E5
:100AE5008607784CA60608A607E4F511F512758267
:100AF5000E12151BAF82784BA607BF021B784C86DA
:100B050006088607784CEE24FFF6EF34FF08F6EE6C
:100B15004F60057847E660D1852E82852F83784A18
:100B2500E6F0852E82852F83A3784BE6F0E52CC36E
:100B3500952EFEE52D952F8E8222AE82AF83784AC3
:100B45007600784B76008533358534367403253544
:100B5500F533E43536F534784776000EBE00010FDF
:100B65008E828F83E0FB7A008E828F83A3E0FCE484
:100B7500FD4203EC42027848A60374022EFEE43FD0
:100B8500FF7848E67003020D7F8E828F83E0FD0EAD
:100B9500BE00010F7849A605ED20E103020CB2ED78
:100BA50030E046783B8604088605784CA60408A6FE
:100BB50005E4F511F5127849868212151BAD827888
:100BC5004BA605BD021B784C8603088604784CEBC2
:100BD50024FFF6EC34FF08F6EB4C60057847E66039
:100BE500D0BD01028003020D7F784886057848ED67
:100BF50014F6ED7003020D7F7848E6700A7849E631
:100C050030E0047849760E783B8604088605784CF2
:100C1500A60408A60575110075121078498682127A
:100C2500151BAD82784BA605BD021B784C860308C3
:100C35008604784CEB24FFF6EC34FF08F6EB4C60A9
:100C4500057847E660CFBD01028003020D7FAC3316
:100C5500AD34901000E08C828D83F074012CF53357
:100C6500E43DF534AC33AD34901001E08C828D83D6
:100C7500F074012CF533E43DF534AC33AD3490100C
:100C850002E08C828D83F074012CF533E43DF5345C
:100C9500AC33AD34901003E0FB8C828D83F074018E
:100CA5002CF533E43DF534784A06020BEE78488698
:100CB500057848ED14F6ED7003020D428E828F83A0
:100CC500E0901000F08E828F83A3E0901001F08EEB
:100CD500828F83A3A3E0901002F08E828F83A3A35B
:100CE500A3E0901003F074042EFEE43FFF783B86EA
:100CF50004088605784CA60408A60575110075122A
:100D05001078498682C007C00612151BAD82D00631
:100D1500D007784BA605BD021B784C8603088604D0
:100D2500784CEB24FFF6EC34FF08F6EB4C600578C5
:100D350047E660C7BD0143784A06020CB2783B8698
:100D450006088607784CA60608A607E4F511F512ED
:100D550075820E12151BAF82784BA607BF021B7852
:100D65004C8606088607784CEE24FFF6EF34FF081C
:100D7500F6EE4F60057847E660D185358285368386
:100D8500784AE6F0853582853683A3E4F085358299
:100D9500853683A3A3784BE6F0E533C39535FEE5A9
:100DA5003495368E8222AE82AF837839B6011185AD
:100DB50037338538348E828F83120B3FAF8280198B
:100DC500AD37AE388D828E83E4F08D828E83A3F0AD
:100DD5008D828E83A3A3F07F038F8222AE82AF83A1
:100DE500AC24AD25E08C828D83F00CBC00010D8E0A
:100DF500828F83E0FB0EBE00010FBB00028069BB42
:100E05000103020E97BB0203020EA7BB0303020EEA
:100E1500B7BB0403020F03BB0502802CBB0602808F
:100E250037BB0803020F12BB1003020EC2BB11032E
:100E3500020ED1BB1203020EDBBB1303020EEABB8B
:100E45001D03020EF4020F1C8C2C8D2D8E828F83B8
:100E5500120493AB82020F2B8C378D388E828F83D1
:100E6500120DABAB82020F2B8E828F83E0FA7401D9
:100E75002CF526E43DF5278A82C005C004120195AC
:100E8500AA82D004D0058C828D83EAF0EA04FB02A5
:100E95000F2B8C118D128E828F831201FEAB820275
:100EA5000F2B8C118D128E828F83120224AB82023E
:100EB5000F2B8C828D83120253AB8280698C118D2E
:100EC500128E828F8312026BAB82805A8C828D8345
:100ED500E4F07B0180508C288D298E828F8312034C
:100EE50061AB8280418C828D83E4F07B0180378CFD
:100EF5002A8D2B8E828F83120387AB8280288C11DB
:100F05008D128E828F8312043FAB8280198C828D65
:100F150083E4F07B01800FEC24FFF582ED34FFF5CF
:0B0F25008374FFF07B01EB04F58222D7
:0617A700312E322E31004C
:03006800750F0011
:100F3000C58205A275820475831015A2850D828570
:100F40000E838000C007CFE493A3A5DFFAD0072269
:100F5000AFDBBF0802800302130690100BE0FE7F98
:100F60000090100AE0FD7C004207EC42068F0AC3A5
:100F700074FE9FE49E5003750AFE7F00901005E00A
:100F8000F50B8F0F901004E0FE546060248E045324
:100F900004607D00BC2005BD0002800BBC400DBD7F
:100FA000000A7FFF0213087FFF0213087FFF02136E
:100FB00008E50B24F45003021302E50B240B83F520
:100FC00082E50B241083F583E473EBD802C002B2F0
:100FD000E202BBCF08081210131113100F131010E8
:100FE0001313901007E0FDBD01028011BD020280C5
:100FF00016BD03028025BD2202805F807B750D0631
:10100000750E177F128073750D19750E17901718CE
:10101000E493FC740193FD8C07805F901006E070F0
:1010200008750D5B750E178026901006E0FDBD015A
:1010300008750D83750E178016901006E0FDBD0231
:1010400008750D5F750E178006750D9B750E17855B
:101050000D82850E83E493FF8020901006E07014CB
:10106000750D42750E1790175AE493FC740193FDA9
:101070008C0780067FFF80027FFFBFFF03021308FB
:10108000C3EF950A50028F0A74F8250A50067C08AF
:101090007D008004AC0A7D008C078F82120F30E542
:1010A0000AC39FF50AEF250DF50DE4350EF50E0286
:1010B0001308901006E0F50A021308901004E50CDE
:1010C000F074FF250A40030213087F010213089001
:1010D0001006E0F50C021308EE541F702F90100755
:1010E000E0FC7D00901006E0FB7A004205EA420435
:1010F000BD0114BC0011901720E493FD30E50302FC
:1011000013087FFF0213087FFF0213088E045304A5
:101110001F7D00BC0205BD000280030211BB9010C0
:1011200008E0FDBD01030211AABD02028061BD03FA
:10113000028041BD04028021BD8102805EBD820229
:10114000803EBD8302801EBD846C74BC55DEFD7C78
:10115000004305028DDE021308747355DEFD7C002A
:101160008DDE02130874BC55D6FD7C004305028D4C
:10117000D6021308747355D6FD7C008DD602130871
:1011800074BC55D4FD7C004305028DD40213087451
:101190007355D4FD7C008DD402130874BC55D2FD68
:1011A0007C004305028DD2021308747355D2FD7C76
:1011B000008DD20213087FFF0213087FFF0213087D
:1011C000EE541F702F901007E0FC7D00901006E099
:1011D000FB7A004205EA4204BD0114BC00119017DD
:1011E00020E493FD30E5030213087FFF0213087F1C
:1011F000FF02130853061F7D00BE0205BD000280DA
:10120000030212E7901007E0FD7E00901006E0FC5C
:101210007B004206EB4205EE4D60030212E39010A4
:1012200009E0FD7E00901008E0FC7B004206EB42E6
:1012300005BE0106BD00030212D3BE0205BD0002B9
:101240008075BE0305BD00028051BE0405BD0002CD
:10125000802DBE8105BD0002806BBE8205BD0002EF
:101260008047BE8305BD00028023BE8472BD006F2F
:1012700074BF55DEFE7D004306038EDE0213087444
:101280007F55DEFE7D0043060C8EDE807B74BF55ED
:10129000D6FE7D004306038ED6806D747F55D6FE44
:1012A0007D0043060C8ED6805F74BF55D4FE7D0052
:1012B0004306038ED48051747F55D4FE7D004306CF
:1012C0000C8ED4804374BF55D2FE7D004306038E3E
:1012D000D28035747F55D2FE7D0043060C8ED27FBE
:1012E000FF80257FFF80217FFF801D901004E4F0A8
:1012F000901005F074FE250A50047F02800AAF0AA0
:1013000080067FFF80027FFFBFFF07750BFF75DC44
:10131000CF22EF24F740068FDD75DCC02275DD009B
:1013200075DCC0227405B50B0280347406B50B461B
:1013300074F8250A50067E087F008004AE0A7F00FC
:101340008E82120F30E50AC39EF50AEE250DF50DCB
:10135000E4350EF50E8EDDAEDC6306408EDC22AE8B
:10136000E35306807F00AC0A7D00EC4206ED4207A5
:101370008EE375DC022275DD0075DC022275DD006E
:1013800043DC022220D9030213F4E5D9540FFFAD48
:10139000D95305307E00BD0005BE00028010BD207F
:1013A00005BE00028027BD3049BE0046803EEF24C6
:1013B000FB403FEF2F9013B9738008800B80338080
:1013C00031802F12137D802A1200C58025EF24FB67
:1013D0004020EF2F9013D873800880168009801268
:1013E0008010121324800B1200B78006BF00031276
:1013F0000F50C2D930D81275DC0275D21275D412D2
:1014000075E300C2DAC2D9C2D810DA0122E5DA20C7
:10141000E20375D8FF2275E22975D181AEE143065A
:10142000028EE1AEE14306018EE1AED843061F8E87
:10143000D8D2EAD2AF75EE0E75EF1075E48E75E571
:101440001075D21275D41A75EC0475ED1075EA801A
:1014500075EB0475DC0275DD0075D30075D50022CF
:10146000AF827E007D00AB11AC128F021FEA6023B9
:10147000ED700D8B828C83E0FEA3AB82AC837D0884
:10148000EE5401FA24FF9296D297C297EEC313FE50
:101490001D80D722AF82743F5FFE70027E40EF3026
:1014A000E746AD13AF14EE60717C007B088E02EB53
:1014B000601BEA6018A296E433F9D297C297ECC396
:1014C00013F8E9035480F948FC1B1A80E28A068B62
:1014D000F005F0EC8002C313D5F0FBFB8D828F8307
:1014E000F0A3AD82AF8380BEAD11AF12EE602B8D45
:1014F000828F83E0FCA3AD82AF837B088E02EB601A
:10150000EBEA60E8EC5401F924FF9296D297C29777
:10151000ECC313FC1B1A8A0680E422AF82D296D257
:1015200097C297EF540124FF9296D297C297EFC3C8
:1015300013FE540124FF9296D297C297EE2FFDEE30
:10154000C313FE540124FF9296D297C297EE2DFD4D
:10155000EEC313FE5401FC24FF9296D297C297EE7D
:101560002D540124FF9296D297C297C296D297C269
:1015700097D296D297C2975393BFD297C297A2960B
:10158000E433FED297C297A296E433FDD297C29776
:10159000ED2DFDEE4205A296E433FED297C297EE02
:1015A0002E25E0FEED4206BE01028003021667EF23
:1015B00030E15A7F007D008F137B08A296E433FA56
:1015C000D297C297EA2DFDEFC313FFEA60098F029D
:1015D0007C004302808A07DBE2E5114512600DE5DD
:1015E000132511F582E43512F583EFF0051374FC31
:1015F000251350C5A296E433FFD297C297EF6D3002
:10160000E0027E08D297C2974393408043D297C2AC
:10161000974393407F007D00ED2511F582E435125C
:10162000F583E0FC8CE030D0010F7B08EC5401FA2C
:1016300024FF9296D297C297ECC313FCDBEE0DBD4C
:10164000040040D4EF5401FF24FF9296D297C29732
:10165000C296783AE6FF600AEF6007D297C2971FFA
:1016600080F6D2968E8222BE02028003BE040CD285
:1016700097C297439340D2968E82227F22D297C2FE
:1016800097DFFA439340D2968E8222858214858317
:101690001585F016AA11AB12AC13A814A915AF1634
:1016A0008A828B838CF01216E6FEA3AA82AB838813
:1016B0008289838FF0EE1216CBA3A882A983EE70E5
:0B16C000DF8514828515838516F0225B
:06005600E478FFF6D8FD7E
:1016CB0020F71130F6138883A88220F509F6A8833A
:0B16DB007583002280FEF280F5F022F3
:0D00490075814D121702E58260030200462A
:1016E60020F71430F6148883A88220F507E6A8832D
:1016F60075830022E280F7E49322E02275820022BD
:00000001FF
